S02100004F6E2D64656D616E6420747261666669632070726F6A6563742E737265639A
S11300000C942A000C9460010C943C000C943C0069
S11300100C943C000C943C000C943C000C943C006C
S11300200C943C000C943C000C943C000C943C005C
S11300300C943C000C943C000C943C000C943C004C
S11300400C943C000C943C000C943C000C943C003C
S11300500C943C0011241FBECFE5D8E0DEBFCDBF19
S113006020E0A0E6B0E001C01D92A136B207E1F79E
S11300700E9499010C94B7040C94000060E080E0A5
S11300800E94880161E080E00E94880162E080E0D3
S11300900E94880160E081E00E94880161E081E0C3
S11300A00E94880162E081E00E94880162E083E0AE
S11300B00E9484010E94C0020E94B802089581E057
S11300C08093600061E080E00E94940161E081E03F
S11300D00E94940184EF91E00E94C60261E080E0F6
S11300E00E94940161E081E00E94940184EF91E018
S11300F00E94C60261E080E00E94940161E081E018
S11301000E94940188EE93E00E94C60261E080E0C0
S11301100E94940161E081E00E94940184EF91E0E7
S11301200E94C60261E080E00E94940161E081E0E7
S11301300E94940184EF91E00E94C60261E080E095
S11301400E94940161E081E00E94940188EE93E0B2
S11301500E94C60261E080E00E94940161E081E0B7
S11301600E94940184EF91E00E94C60261E080E065
S11301700E94940161E081E00E94940184EF91E087
S11301800E94C60210926000089560E080E00E9420
S11301908C0162E081E00E948C0188E893E10E9476
S11301A0C60260E080E00E94900162E081E00E946B
S11301B090010E945F0061E080E00E94900161E094
S11301C081E00E94900162E080E00E948C0160E086
S11301D081E00E948C0188E893E10E94C60262E0FB
S11301E080E00E94900160E081E00E9490010E9402
S11301F05F0061E080E00E94900161E081E00E9484
S113020090010895CA9B0DC062E080E00E948C01B9
S113021060E081E00E948C0188E893E10E94C602BC
S113022028C0C89904C080916000813011F560E055
S113023080E00E94900162E081E00E948C010E94B3
S11302405F0061E080E00E94900161E081E00E9433
S1130250900162E081E00E94900162E080E00E94EF
S11302608C0160E081E00E948C0188E893E10E94A7
S1130270C60262E080E00E9490010E945F0061E09B
S113028080E00E94900161E081E00E94900160E0C2
S113029081E00E94900160E080E00E948C0162E0B5
S11302A081E00E948C0188E893E10E94C60260E02C
S11302B080E00E94900162E081E00E949001089534
S11302C01F920F920FB60F9211242F933F934F93C7
S11302D05F936F937F938F939F93AF93BF93EF93AA
S11302E0FF930E940201FF91EF91BF91AF919F9103
S11302F08F917F916F915F914F913F912F910F90CB
S11303000FBE0F901F90189540E00E949E01089523
S113031041E00E949E01089541E00E941102089567
S113032040E00E941102089570E090E00E9484026F
S113033008950E943E000E94C500FDCF683008F079
S11303406FC0843008F06CC0813001F130F082302D
S1130350B1F1833009F44CC00895413059F42AB303
S113036081E090E002C0880F991F6A95E2F7822B22
S11303708ABB08952AB381E090E002C0880F991FD8
S11303806A95E2F7809582238ABB0895413059F437
S113039027B381E090E002C0880F991F6A95E2F7C5
S11303A0822B87BB089527B381E090E002C0880FB9
S11303B0991F6A95E2F78095822387BB089541309F
S11303C059F424B381E090E002C0880F991F6A9524
S11303D0E2F7822B84BB089524B381E090E002C04D
S11303E0880F991F6A95E2F78095822384BB08954C
S11303F0413059F421B381E090E002C0880F991F85
S11304006A95E2F7822B81BB089521B381E090E0E5
S113041002C0880F991F6A95E2F78095822381BBF9
S11304200895683008F06FC0843008F06CC08130E3
S113043001F130F08230B1F1833009F44CC00895F9
S1130440413059F42BB381E090E002C0880F991F2A
S11304506A95E2F7822B8BBB08952BB381E090E081
S113046002C0880F991F6A95E2F7809582238BBB9F
S11304700895413059F428B381E090E002C0880F18
S1130480991F6A95E2F7822B88BB089528B381E00F
S113049090E002C0880F991F6A95E2F78095822345
S11304A088BB0895413059F425B381E090E002C03F
S11304B0880F991F6A95E2F7822B85BB089525B3AF
S11304C081E090E002C0880F991F6A95E2F7809559
S11304D0822385BB0895413059F422B381E090E032
S11304E002C0880F991F6A95E2F7822B82BB089598
S11304F022B381E090E002C0880F991F6A95E2F769
S11305008095822382BB0895813089F028F082305F
S1130510C9F0833011F108952BB381E090E002C05B
S1130520880F991F6A95E2F782278BBB089528B339
S113053081E090E002C0880F991F6A95E2F7822754
S113054088BB089525B381E090E002C0880F991F0D
S11305506A95E2F7822785BB089522B381E090E093
S113056002C0880F991F6A95E2F7822782BB08951B
S1130570789485B7836085BF8BB780648BBF0895FB
S113058013BE12BE83B7856083BF0895CF92DF92F6
S1130590EF92FF92CF93DF93EC01BC01990F880B8C
S11305A0990B0E94C6036B017C012FE632E143E8FC
S11305B053E40E941E03882384F0C630D14081F0A6
S11305C02FE632E143E853E4C701B6010E94230356
S11305D00E9407030E94950305C061E070E002C019
S11305E061E070E020E030E008C008B600FEFDCF16
S11305F088B7816088BF2F5F3F4F26173707A8F35E
S1130600DF91CF91FF90EF90DF90CF9008950E94FB
S1130610980490F09F3748F4911116F40C94B104A7
S113062060E070E080E89FE3089526F01B16611DEA
S1130630711D811D0C942B040C9446040E9401042A
S113064008F481E008950E9437030C9465040E9425
S11306505E0458F00E94570440F029F45F3F29F0EB
S11306600C94250451110C94B1040C9454040E946C
S1130670760468F39923B1F3552391F3951B550B35
S1130680BB27AA2762177307840738F09F5F5F4F61
S1130690220F331F441FAA1FA9F335D00E2E3AF0A0
S11306A0E0E832D091505040E695001CCAF72BD0B8
S11306B0FE2F29D0660F771F881FBB1F2617370709
S11306C04807AB07B0E809F0BB0B802DBF01FF273B
S11306D093585F4F3AF09E3F510578F00C942504EF
S11306E00C94B1045F3FE4F3983ED4F38695779578
S11306F06795B795F7959F5FC9F7880F911D9695F4
S1130700879597F90895E1E0660F771F881FBB1F4F
S1130710621773078407BA0720F0621B730B840BFC
S1130720BA0BEE1F88F7E09508950E947E0488F0C6
S11307309F5798F0B92F9927B751B0F0E1F0660FA1
S1130740771F881F991F1AF0BA95C9F714C0B130E2
S113075091F00E94B004B1E008950C94B004672FA6
S1130760782F8827B85F39F0B93FCCF38695779511
S11307706795B395D9F73EF49095809570956195FA
S11307807F4F8F4F9F4F0895E89409C097FB3EF425
S113079090958095709561957F4F8F4F9F4F9923CA
S11307A0A9F0F92F96E9BB279395F6958795779548
S11307B06795B795F111F8CFFAF4BB0F11F460FF08
S11307C01BC06F5F7F4F8F4F9F4F16C0882311F060
S11307D096E911C0772321F09EE8872F762F05C074
S11307E0662371F096E8862F70E060E02AF09A950F
S11307F0660F771F881FDAF7880F9695879597F904
S11308000895990F0008550FAA0BE0E8FEEF16169D
S11308101706E807F907C0F012161306E407F507F0
S113082098F0621B730B840B950B39F40A2661F064
S1130830232B242B252B21F408950A2609F4A14007
S1130840A6958FEF811D811D089597F99F6780E814
S113085070E060E00895882371F4772321F09850C4
S1130860872B762F07C0662311F499270DC090516A
S1130870862B70E060E02AF09A95660F771F881F38
S1130880DAF7880F9695879597F908959F3F31F089
S1130890915020F4879577956795B795880F911DAA
S11308A09695879597F908959FEF80EC0895002415
S11308B00A941616170618060906089500240A94C1
S11308C012161306140605060895092E0394000C47
S11308D011F4882352F0BB0F40F4BF2B11F460FFD6
S11308E004C06F5F7F4F8F4F9F4F089557FD9058FF
S11308F0440F551F59F05F3F71F04795880F97FBE0
S1130900991F61F09F3F79F0879508951216130699
S11309101406551FF2CF4695F1DF08C016161706C8
S11309201806991FF1CF86957105610508940895FD
S11309300E947E04A0F0BEE7B91788F4BB279F3855
S113094060F41616B11D672F782F8827985FF7CFAC
S1130950869577956795B11D93959639C8F3089553
S1130960E894BB2766277727CB0197F90895F89475
S1050970FFCFB3
S9030000FC
